01REMESSA01COBRANCA       5268887300448000109                               748SICREDI        20220810        0005807                                                                                                                                                                                                                                                                                 2.00000001
1AAA            AAA                            212263631      20220810 N B0000    00000000000200            01212263631 1003210000000010872         KN270121000000000000000040000000000000000000000000000000000000000000001000002746730022ALICE DE LIMA MEOTTI                    RUA TEODORO MENDES DE OLIVEIRA, 518     00000000000 959950000000000000000000000                                         000002
1AAA            AAA                            212263640      20220810 N B0000    00000000000200            01212263640 1004210000000010872         KN270121000000000000000040000000000000000000000000000000000000000000001000002746730022ALICE DE LIMA MEOTTI                    RUA TEODORO MENDES DE OLIVEIRA, 518     00000000000 959950000000000000000000000                                         000003
1AAA            AAA                            212264808      20220810 N B0000    00000000000200            01212264808 2403210000000002003         KN270121000000000000000010000000000000000000000000000000000000000000001000002196233099CATIELI DUTRA MATTE                     RUA MARGARIDAS, 25                      00000000000 959600000000000000000000000                                         000004
1AAA            AAA                            212266843      20220810 N B0000    00000000000200            01212266843 1206210000000007971         KN290121000000000000000030000000000000000000000000000000000000000000001000039946355000JOSE LUIZ DA SILVA BRUM                 RUA SANTA ALBINA, 253                   00000000000 967550000000000000000000000                                         000005
1AAA            AAA                            212266851      20220810 N B0000    00000000000200            01212266851 1207210000000007971         KN290121000000000000000030000000000000000000000000000000000000000000001000039946355000JOSE LUIZ DA SILVA BRUM                 RUA SANTA ALBINA, 253                   00000000000 967550000000000000000000000                                         000006
1AAA            AAA                            212332919      20220810 N B0000    00000000000200            01212332919 1502210000000004405         KN020221000000000000000010000000000000000000000000000000000000000000001000001539138003JOICE FERNANDA PETRY                    RUA ROMANO PEDRINHO SCHERER, 167        00000000000 959400000000000000000000000                                         000007
1AAA            AAA                            212333435      20220810 N B0000    00000000000200            01212333435 1502210000000009210         KN020221000000000000000030000000000000000000000000000000000000000000001000046580549068ERNI AULER                              RUA IMO SEBASTIAO, 29                   00000000000 968401400000000000000000000                                         000008
1AAA            AAA                            212339220      20220810 N B0000    00000000000200            01212339220 2003210000000009080         KN020221000000000000000030000000000000000000000000000000000000000000001000000204344727SILVIO CARLOS GONCALVES DUTRA           SANTA HELENA , 39                       00000000000 967000000000000000000000000                                         000009
1AAA            AAA                            212284175      20220810 N B0000    00000000000200            01212284175 1602210000000006029         KN030221000000000000000020000000000000000000000000000000000000000000001000003083891075FERNANDA FRANCA                         MONTE ALEGRE, S/N                       00000000000 958330000000000000000000000                                         000010
1AAA            AAA                            212284183      20220810 N B0000    00000000000200            01212284183 1603210000000006029         KN030221000000000000000020000000000000000000000000000000000000000000001000003083891075FERNANDA FRANCA                         MONTE ALEGRE, S/N                       00000000000 958330000000000000000000000                                         000011
1AAA            AAA                            212284191      20220810 N B0000    00000000000200            01212284191 1604210000000006029         KN030221000000000000000020000000000000000000000000000000000000000000001000003083891075FERNANDA FRANCA                         MONTE ALEGRE, S/N                       00000000000 958330000000000000000000000                                         000012
1AAA            AAA                            212284221      20220810 N B0000    00000000000200            01212284221 1702210000000005806         KN030221000000000000000020000000000000000000000000000000000000000000001000002813205001CAMILLA SOUZA CAPELAO                   RUA GENERAL OSORIO, 169, APTO 102       00000000000 958000000000000000000000000                                         000013
1AAA            AAA                            212284230      20220810 N B0000    00000000000200            01212284230 1703210000000005806         KN030221000000000000000020000000000000000000000000000000000000000000001000002813205001CAMILLA SOUZA CAPELAO                   RUA GENERAL OSORIO, 169, APTO 102       00000000000 958000000000000000000000000                                         000014
1AAA            AAA                            212284248      20220810 N B0000    00000000000200            01212284248 1704210000000005806         KN030221000000000000000020000000000000000000000000000000000000000000001000002813205001CAMILLA SOUZA CAPELAO                   RUA GENERAL OSORIO, 169, APTO 102       00000000000 958000000000000000000000000                                         000015
1AAA            AAA                            212284256      20220810 N B0000    00000000000200            01212284256 1705210000000005807         KN030221000000000000000020000000000000000000000000000000000000000000001000002813205001CAMILLA SOUZA CAPELAO                   RUA GENERAL OSORIO, 169, APTO 102       00000000000 958000000000000000000000000                                         000016
1AAA            AAA                            212284264      20220810 N B0000    00000000000200            01212284264 1706210000000005807         KN030221000000000000000020000000000000000000000000000000000000000000001000002813205001CAMILLA SOUZA CAPELAO                   RUA GENERAL OSORIO, 169, APTO 102       00000000000 958000000000000000000000000                                         000017
1AAA            AAA                            212284655      20220810 N B0000    00000000000200            01212284655 1802210000000007450         KN040221000000000000000020000000000000000000000000000000000000000000001000002213462011CAMILA HAMMES DA SILVA                  RUA SALDANHA MARINHO, 720/406           00000000000 959000820000000000000000000                                         000018
1AAA            AAA                            212284736      20220810 N B0000    00000000000200            01212284736 1503210000000005565         KN040221000000000000000020000000000000000000000000000000000000000000001000003597274099ARIEL COSTA                             RUA UM LOT SIEGER, 743                  00000000000 958000000000000000000000000                                         000019
1AAA            AAA                            212284744      20220810 N B0000    00000000000200            01212284744 1504210000000005565         KN040221000000000000000020000000000000000000000000000000000000000000001000003597274099ARIEL COSTA                             RUA UM LOT SIEGER, 743                  00000000000 958000000000000000000000000                                         000020
1AAA            AAA                            212284752      20220810 N B0000    00000000000200            01212284752 1505210000000005565         KN040221000000000000000020000000000000000000000000000000000000000000001000003597274099ARIEL COSTA                             RUA UM LOT SIEGER, 743                  00000000000 958000000000000000000000000                                         000021
1AAA            AAA                            212284760      20220810 N B0000    00000000000200            01212284760 1506210000000005565         KN040221000000000000000020000000000000000000000000000000000000000000001000003597274099ARIEL COSTA                             RUA UM LOT SIEGER, 743                  00000000000 958000000000000000000000000                                         000022
1AAA            AAA                            212284779      20220810 N B0000    00000000000200            01212284779 1507210000000005565         KN040221000000000000000020000000000000000000000000000000000000000000001000003597274099ARIEL COSTA                             RUA UM LOT SIEGER, 743                  00000000000 958000000000000000000000000                                         000023
1AAA            AAA                            212332765      20220810 N B0000    00000000000200            01212332765 1002210000000025930         KN040221000000000000000090000000000000000000000000000000000000000000001000001172641056FRANCIANE BERGMANN LIMA                 RUA EDMUNDO NIEDERLE, 95 CASA 01        00000000000 959063200000000000000000000                                         000024
1AAA            AAA                            212319815      20220810 N B0000    00000000000200            01212319815 0504210000000009699         KN050221000000000000000030000000000000000000000000000000000000000000001000068952023072ROSELEI EICH                            MARECHL FLORIANO, 90/23                 00000000000 958000000000000000000000000                                         000025
1AAA            AAA                            212319823      20220810 N B0000    00000000000200            01212319823 0505210000000009699         KN050221000000000000000030000000000000000000000000000000000000000000001000068952023072ROSELEI EICH                            MARECHL FLORIANO, 90/23                 00000000000 958000000000000000000000000                                         000026
1AAA            AAA                            212319831      20220810 N B0000    00000000000200            01212319831 0506210000000009699         KN050221000000000000000030000000000000000000000000000000000000000000001000068952023072ROSELEI EICH                            MARECHL FLORIANO, 90/23                 00000000000 958000000000000000000000000                                         000027
1AAA            AAA                            212319840      20220810 N B0000    00000000000200            01212319840 0507210000000009699         KN050221000000000000000030000000000000000000000000000000000000000000001000068952023072ROSELEI EICH                            MARECHL FLORIANO, 90/23                 00000000000 958000000000000000000000000                                         000028
1AAA            AAA                            212320210      20220810 N B0000    00000000000200            01212320210 1902210000000011783         KN050221000000000000000040000000000000000000000000000000000000000000001000097229067049SIMONE CASAGRANDE                       RUA PADRE EGIDIO ZAMBONI , 780          00000000000 959950000000000000000000000                                         000029
1AAA            AAA                            212320228      20220810 N B0000    00000000000200            01212320228 1903210000000011783         KN050221000000000000000040000000000000000000000000000000000000000000001000097229067049SIMONE CASAGRANDE                       RUA PADRE EGIDIO ZAMBONI , 780          00000000000 959950000000000000000000000                                         000030
1AAA            AAA                            212320392      20220810 N B0000    00000000000200            01212320392 0403210000000008612         KN080221000000000000000030000000000000000000000000000000000000000000001000077281322020TERESINHA MARGARIDA RODE                RUA BOM JESUS, 270                      00000000000 959018840000000000000000000                                         000031
1AAA            AAA                            212320406      20220810 N B0000    00000000000200            01212320406 0404210000000008612         KN080221000000000000000030000000000000000000000000000000000000000000001000077281322020TERESINHA MARGARIDA RODE                RUA BOM JESUS, 270                      00000000000 959018840000000000000000000                                         000032
1AAA            AAA                            212320414      20220810 N B0000    00000000000200            01212320414 0405210000000008612         KN080221000000000000000030000000000000000000000000000000000000000000001000077281322020TERESINHA MARGARIDA RODE                RUA BOM JESUS, 270                      00000000000 959018840000000000000000000                                         000033
1AAA            AAA                            212320422      20220810 N B0000    00000000000200            01212320422 0406210000000008612         KN080221000000000000000030000000000000000000000000000000000000000000001000077281322020TERESINHA MARGARIDA RODE                RUA BOM JESUS, 270                      00000000000 959018840000000000000000000                                         000034
1AAA            AAA                            212320430      20220810 N B0000    00000000000200            01212320430 2602210000000017670         KN080221000000000000000060000000000000000000000000000000000000000000001000099588684072ALEX QUINTANA                           RUA GENERAL OSORIO 169 APTO 102         00000000000 958000000000000000000000000                                         000035
1AAA            AAA                            212320449      20220810 N B0000    00000000000200            01212320449 2603210000000017670         KN080221000000000000000060000000000000000000000000000000000000000000001000099588684072ALEX QUINTANA                           RUA GENERAL OSORIO 169 APTO 102         00000000000 958000000000000000000000000                                         000036
1AAA            AAA                            212754953      20220810 N B0000    00000000000200            01212754953 2704210000000025810         KN170321000000000000000090000000000000000000000000000000000000000000001000004300801070RAPHAELA DE ALMEIDA RAPHAELLI           MANOEL DOS SANTOS CARDOSO DE MENEZES , 200000000000 967000000000000000000000000                                         000037
1AAA            AAA                            212756107      20220810 N B0000    00000000000200            01212756107 1704210000000044425         KN170321000000000000000150000000000000000000000000000000000000000000001000002944313061RODRIGO OLIVEIRA KRINDGES               RUA JOAO W DA FONTOURA, 200             00000000000 968155840000000000000000000                                         000038
1AAA            AAA                            212763430      20220810 N B0000    00000000000200            01212763430 1504210000000032925         KN170321000000000000000110000000000000000000000000000000000000000000001000000191042005GILMAR MACIEL                           RUA JOAO R SAFFRAN, 173 CASA 1          00000000000 959032620000000000000000000                                         000039
1AAA            AAA                            212765068      20220810 N B0000    00000000000200            01212765068 1504210000000039304         KN170321000000000000000130000000000000000000000000000000000000000000001000004965415957ANDRE KRAMES FREITAS                    RUA ROQUE CALAGE, 850/505               00000000000 913500900000000000000000000                                         000040
1AAA            AAA                            212766056      20220810 N B0000    00000000000200            01212766056 1004210000000028990         KN170321000000000000000100000000000000000000000000000000000000000000001000001785704001EDUARDO GOMES                           RUA MAURICIO CARDOSO, 408               00000000000 959131300000000000000000000                                         000041
1AAA            AAA                            212773206      20220810 N B0000    00000000000200            01212773206 2504210000000058636         KN170321000000000000000200000000000000000000000000000000000000000000001000078225140087MIRIAM ANDREIA RIBEIRO DE OLIVEIRA      RUA AL DOS JARDINS, 50 TORRE 04/404     00000000000 924125460000000000000000000                                         000042
1AAA            AAA                            212776817      20220810 N B0000    00000000000200            01212776817 1504210000000031013         KN170321000000000000000100000000000000000000000000000000000000000000001000001730356044RITIELE FERREIRA CAMARA                 RUA BERNARDO R DA SILVA, 88             00000000000 966400000000000000000000000                                         000043
1AAA            AAA                            212714250      20220810 N B0000    00000000000200            01212714250 1504210000000083303         KN170321000000000000000280000000000000000000000000000000000000000000001000001538469090PRISCILA FEITOSA GOMES                  AVENIDA ANDARAI, 424                    00000000000 940802000000000000000000000                                         000044
1AAA            AAA                            212779816      20220810 N B0000    00000000000200            01212779816 1504210000000032597         KN170321000000000000000110000000000000000000000000000000000000000000001000001978171064REGINA BEATRIZ COLOMBELLI               RUA PRESIDENTE EPITACIO PESSOA , 645    00000000000 968152600000000000000000000                                         000045
1AAA            AAA                            212780938      20220810 N B0000    00000000000200            01212780938 1004210000000028535         KN170321000000000000000100000000000000000000000000000000000000000000001000002720986046MAIZA THOMAS                            RUA CARLOS WAGNER, 463, BL 06, APTO 03  00000000000 958000000000000000000000000                                         000046
1AAA            AAA                            212781594      20220810 N B0000    00000000000200            01212781594 2704210000000051353         KN170321000000000000000170000000000000000000000000000000000000000000001000001047740028DAIANE TERESINHA VERDUM LAGASSE         RUA GETULIO VARGAS, 721                 00000000000 958000000000000000000000000                                         000047
1AAA            AAA                            212781667      20220810 N B0000    00000000000200            01212781667 1004210000000065401         KN170321000000000000000220000000000000000000000000000000000000000000001000004149973016TAINARA SEVERINO MELLO                  R LINHA ARROIO GRANDE, S/N              00000000000 958000000000000000000000000                                         000048
1AAA            AAA                            212782353      20220810 N B0000    00000000000200            01212782353 1504210000000026760         KN170321000000000000000090000000000000000000000000000000000000000000001000002803432056GABRIELA DE FARIA                       RUA MIGUEL R SCHAUREN, 738              00000000000 959100680000000000000000000                                         000049
1AAA            AAA                            212782639      20220810 N B0000    00000000000200            01212782639 1504210000000052131         KN170321000000000000000170000000000000000000000000000000000000000000001000000703357026EVERALDO ANDRE DA SILVA MARQUES         RUA FRANCISCO BITENCOURT, 1851          00000000000 958600000000000000000000000                                         000050
1AAA            AAA                            212783856      20220810 N B0000    00000000000200            01212783856 1504210000000023875         KN170321000000000000000080000000000000000000000000000000000000000000001000004485418073RAFAELA MILENA PINHEIRO DOS SANTOS      RUA AUGUSTO RAFFLER, 107                00000000000 968453900000000000000000000                                         000051
1AAA            AAA                            212787266      20220810 N B0000    00000000000200            01212787266 1004210000000029363         KN170321000000000000000100000000000000000000000000000000000000000000001000002480858081IANACI VIEIRA GRANVILE                  LINHA SABADIN, SN                       00000000000 959950000000000000000000000                                         000052
1AAA            AAA                            212788262      20220810 N B0000    00000000000200            01212788262 1504210000000025242         KN170321000000000000000080000000000000000000000000000000000000000000001000003393217097DALVAN PONTES MACIEL                    LINHA 12 DE OUTUBRO, S/N                00000000000 959230000000000000000000000                                         000053
1AAA            AAA                            212788602      20220810 N B0000    00000000000200            01212788602 1504210000000035551         KN170321000000000000000120000000000000000000000000000000000000000000001000000509436005JUREMA SILVERIO DE LIMA                 RUA 2 DE NOVEMBRO, 645                  00000000000 959150000000000000000000000                                         000054
1AAA            AAA                            212788637      20220810 N B0000    00000000000200            01212788637 1504210000000042565         KN170321000000000000000140000000000000000000000000000000000000000000001000000112048005LUCIANA DALBOSCO DE AZEVEDO             RUA DA REPUBLICA, 83                    00000000000 968750000000000000000000000                                         000055
1AAA            AAA                            212789293      20220810 N B0000    00000000000200            01212789293 1004210000000029395         KN170321000000000000000100000000000000000000000000000000000000000000001000002194453032GIOVANA JOHANN LOPES NUNES              RUA PADRE REUS, 160                     00000000000 958000000000000000000000000                                         000056
1AAA            AAA                            212790186      20220810 N B0000    00000000000200            01212790186 2504210000000097426         KN170321000000000000000320000000000000000000000000000000000000000000001000030962550833VLADEMIR CEGOVIA RODRIGUES JUNIOR       RUA JOAO DE SOUZA,114                   00000000000 071953300000000000000000000                                         000057
1AAA            AAA                            212790836      20220810 N B0000    00000000000200            01212790836 1504210000000018535         KN170321000000000000000060000000000000000000000000000000000000000000001000001847901077PATRIK PIRES DOS REIS                   JOSE PORFIRIO DA COSTA, 831             00000000000 958600000000000000000000000                                         000058
1AAA            AAA                            212608051      20220810 N B0000    00000000000200            01212608051 2705210000000034259         KN180321000000000000000110000000000000000000000000000000000000000000001000000456566066DAIANI MARIA                            RUA SAO GABRIEL, 32/101                 00000000000 959300000000000000000000000                                         000059
1AAA            AAA                            212793614      20220810 N B0000    00000000000200            01212793614 2504210000000005137         KN180321000000000000000020000000000000000000000000000000000000000000001000042452839809EVERSON FLAVIO                          GERALDO S JUNIOR, 170 KM 22             00000000000 130584220000000000000000000                                         000060
1AAA            AAA                            212793886      20220810 N B0000    00000000000200            01212793886 2504210000000003300         KN180321000000000000000010000000000000000000000000000000000000000000001000019459781802MARCELO FERREIRA BARBOSA                RUA GAROPA, 199 TORRE 1 AP 118          00000000000 080304100000000000000000000                                         000061
1AAA            AAA                            212793274      20220810 N B0000    00000000000200            01212793274 0105210000000007552         KN190321000000000000000030000000000000000000000000000000000000000000001000002889425070CAROLINE ANDREA DORNELES MOREIRA        AVENIDA 15 DE SETEMBRO, 3420            00000000000 968780000000000000000000000                                         000062
1AAA            AAA                            212793282      20220810 N B0000    00000000000200            01212793282 0106210000000007552         KN190321000000000000000030000000000000000000000000000000000000000000001000002889425070CAROLINE ANDREA DORNELES MOREIRA        AVENIDA 15 DE SETEMBRO, 3420            00000000000 968780000000000000000000000                                         000063
1AAA            AAA                            212796222      20220810 N B0000    00000000000200            01212796222 1004210000000027874         KN230321000000000000000090000000000000000000000000000000000000000000001000053663543072MARISTELA BERTOL DOS SANTOS             RUA PERNAMBUCO, 419                     00000000000 959132120000000000000000000                                         000064
1AAA            AAA                            212796230      20220810 N B0000    00000000000200            01212796230 1005210000000027874         KN230321000000000000000090000000000000000000000000000000000000000000001000053663543072MARISTELA BERTOL DOS SANTOS             RUA PERNAMBUCO, 419                     00000000000 959132120000000000000000000                                         000065
1AAA            AAA                            212796249      20220810 N B0000    00000000000200            01212796249 1006210000000027874         KN230321000000000000000090000000000000000000000000000000000000000000001000053663543072MARISTELA BERTOL DOS SANTOS             RUA PERNAMBUCO, 419                     00000000000 959132120000000000000000000                                         000066
1AAA            AAA                            212796257      20220810 N B0000    00000000000200            01212796257 1007210000000027874         KN230321000000000000000090000000000000000000000000000000000000000000001000053663543072MARISTELA BERTOL DOS SANTOS             RUA PERNAMBUCO, 419                     00000000000 959132120000000000000000000                                         000067
1AAA            AAA                            212796265      20220810 N B0000    00000000000200            01212796265 1008210000000027874         KN230321000000000000000090000000000000000000000000000000000000000000001000053663543072MARISTELA BERTOL DOS SANTOS             RUA PERNAMBUCO, 419                     00000000000 959132120000000000000000000                                         000068
1AAA            AAA                            213090773      20220810 N B0000    00000000000200            01213090773 1805210000000068700         KN040521000000000000000230000000000000000000000000000000000000000000001000033049513004LAIR DE AZAMBUJA MUHL                   RUA DOM PEDRO II, 1151                  00000000000 958900000000000000000000000                                         000069
1AAA            AAA                            213090781      20220810 N B0000    00000000000200            01213090781 1806210000000068700         KN040521000000000000000230000000000000000000000000000000000000000000001000033049513004LAIR DE AZAMBUJA MUHL                   RUA DOM PEDRO II, 1151                  00000000000 958900000000000000000000000                                         000070
1AAA            AAA                            213090790      20220810 N B0000    00000000000200            01213090790 1807210000000068700         KN040521000000000000000230000000000000000000000000000000000000000000001000033049513004LAIR DE AZAMBUJA MUHL                   RUA DOM PEDRO II, 1151                  00000000000 958900000000000000000000000                                         000071
1AAA            AAA                            213090803      20220810 N B0000    00000000000200            01213090803 1808210000000068700         KN040521000000000000000230000000000000000000000000000000000000000000001000033049513004LAIR DE AZAMBUJA MUHL                   RUA DOM PEDRO II, 1151                  00000000000 958900000000000000000000000                                         000072
1AAA            AAA                            213090811      20220810 N B0000    00000000000200            01213090811 1809210000000068700         KN040521000000000000000230000000000000000000000000000000000000000000001000033049513004LAIR DE AZAMBUJA MUHL                   RUA DOM PEDRO II, 1151                  00000000000 958900000000000000000000000                                         000073
1AAA            AAA                            213090820      20220810 N B0000    00000000000200            01213090820 1810210000000068700         KN040521000000000000000230000000000000000000000000000000000000000000001000033049513004LAIR DE AZAMBUJA MUHL                   RUA DOM PEDRO II, 1151                  00000000000 958900000000000000000000000                                         000074
1AAA            AAA                            213092784      20220810 N B0000    00000000000200            01213092784 1805210000000006344         KN050521000000000000000020000000000000000000000000000000000000000000001000003083891075FERNANDA FRANCA                         MONTE ALEGRE, S/N                       00000000000 958330000000000000000000000                                         000075
1AAA            AAA                            213093012      20220810 N B0000    00000000000200            01213093012 1805210000000013928         KN050521000000000000000050000000000000000000000000000000000000000000001000003656513031WILSON GUILHERME MARKUS                 RUA EDWINO DICKEL, 937                  00000000000 958900000000000000000000000                                         000076
1AAA            AAA                            213093020      20220810 N B0000    00000000000200            01213093020 1806210000000013928         KN050521000000000000000050000000000000000000000000000000000000000000001000003656513031WILSON GUILHERME MARKUS                 RUA EDWINO DICKEL, 937                  00000000000 958900000000000000000000000                                         000077
1AAA            AAA                            213093055      20220810 N B0000    00000000000200            01213093055 1805210000000012266         KN050521000000000000000040000000000000000000000000000000000000000000001000098614622015CLORI DA SILVA FERREIRA                 RUA DA OLARIA ,  56                     00000000000 967000000000000000000000000                                         000078
1AAA            AAA                            213143818      20220810 N B0000    00000000000200            01213143818 2005210000000014997         KN110521000000000000000050000000000000000000000000000000000000000000001000030003130010ELOI PINHEIRO                           LIGIA ANDRIOTTI MAIA,327                00000000000 967450000000000000000000000                                         000079
1AAA            AAA                            213143826      20220810 N B0000    00000000000200            01213143826 2006210000000014997         KN110521000000000000000050000000000000000000000000000000000000000000001000030003130010ELOI PINHEIRO                           LIGIA ANDRIOTTI MAIA,327                00000000000 967450000000000000000000000                                         000080
1AAA            AAA                            213143834      20220810 N B0000    00000000000200            01213143834 2007210000000014997         KN110521000000000000000050000000000000000000000000000000000000000000001000030003130010ELOI PINHEIRO                           LIGIA ANDRIOTTI MAIA,327                00000000000 967450000000000000000000000                                         000081
1AAA            AAA                            213143842      20220810 N B0000    00000000000200            01213143842 2008210000000014997         KN110521000000000000000050000000000000000000000000000000000000000000001000030003130010ELOI PINHEIRO                           LIGIA ANDRIOTTI MAIA,327                00000000000 967450000000000000000000000                                         000082
1AAA            AAA                            213143850      20220810 N B0000    00000000000200            01213143850 2009210000000014997         KN110521000000000000000050000000000000000000000000000000000000000000001000030003130010ELOI PINHEIRO                           LIGIA ANDRIOTTI MAIA,327                00000000000 967450000000000000000000000                                         000083
1AAA            AAA                            213143869      20220810 N B0000    00000000000200            01213143869 2010210000000014997         KN110521000000000000000050000000000000000000000000000000000000000000001000030003130010ELOI PINHEIRO                           LIGIA ANDRIOTTI MAIA,327                00000000000 967450000000000000000000000                                         000084
1AAA            AAA                            213146752      20220810 N B0000    00000000000200            01213146752 2605210000000010504         KN130521000000000000000040000000000000000000000000000000000000000000001000000505407000DAYANE BRIAO MENEZES DOS SANTOS         RUA AURELIO HELIO MOESCH, 647           00000000000 959600000000000000000000000                                         000085
1AAA            AAA                            213146760      20220810 N B0000    00000000000200            01213146760 2606210000000010504         KN130521000000000000000040000000000000000000000000000000000000000000001000000505407000DAYANE BRIAO MENEZES DOS SANTOS         RUA AURELIO HELIO MOESCH, 647           00000000000 959600000000000000000000000                                         000086
1AAA            AAA                            213146779      20220810 N B0000    00000000000200            01213146779 2607210000000010504         KN130521000000000000000040000000000000000000000000000000000000000000001000000505407000DAYANE BRIAO MENEZES DOS SANTOS         RUA AURELIO HELIO MOESCH, 647           00000000000 959600000000000000000000000                                         000087
1AAA            AAA                            213146787      20220810 N B0000    00000000000200            01213146787 2608210000000010504         KN130521000000000000000040000000000000000000000000000000000000000000001000000505407000DAYANE BRIAO MENEZES DOS SANTOS         RUA AURELIO HELIO MOESCH, 647           00000000000 959600000000000000000000000                                         000088
1AAA            AAA                            213146795      20220810 N B0000    00000000000200            01213146795 2605210000000006946         KN130521000000000000000020000000000000000000000000000000000000000000001000000449852075LETICIA BEDINOTO BLASI                  ITAVOR NUMMER, 115                      00000000000 959056780000000000000000000                                         000089
1AAA            AAA                            213146973      20220810 N B0000    00000000000200            01213146973 2005210000000006431         KN140521000000000000000020000000000000000000000000000000000000000000001000001301875007ELISANDRA KERN                          RUA EMILIO MICHELS, 1668                00000000000 958000000000000000000000000                                         000090
1AAA            AAA                            213146981      20220810 N B0000    00000000000200            01213146981 2006210000000006431         KN140521000000000000000020000000000000000000000000000000000000000000001000001301875007ELISANDRA KERN                          RUA EMILIO MICHELS, 1668                00000000000 958000000000000000000000000                                         000091
1AAA            AAA                            213146990      20220810 N B0000    00000000000200            01213146990 2007210000000006431         KN140521000000000000000020000000000000000000000000000000000000000000001000001301875007ELISANDRA KERN                          RUA EMILIO MICHELS, 1668                00000000000 958000000000000000000000000                                         000092
1AAA            AAA                            213147007      20220810 N B0000    00000000000200            01213147007 2008210000000006431         KN140521000000000000000020000000000000000000000000000000000000000000001000001301875007ELISANDRA KERN                          RUA EMILIO MICHELS, 1668                00000000000 958000000000000000000000000                                         000093
1AAA            AAA                            213147015      20220810 N B0000    00000000000200            01213147015 2009210000000006431         KN140521000000000000000020000000000000000000000000000000000000000000001000001301875007ELISANDRA KERN                          RUA EMILIO MICHELS, 1668                00000000000 958000000000000000000000000                                         000094
1AAA            AAA                            213147023      20220810 N B0000    00000000000200            01213147023 2010210000000006431         KN140521000000000000000020000000000000000000000000000000000000000000001000001301875007ELISANDRA KERN                          RUA EMILIO MICHELS, 1668                00000000000 958000000000000000000000000                                         000095
1AAA            AAA                            213147031      20220810 N B0000    00000000000200            01213147031 2011210000000006431         KN140521000000000000000020000000000000000000000000000000000000000000001000001301875007ELISANDRA KERN                          RUA EMILIO MICHELS, 1668                00000000000 958000000000000000000000000                                         000096
1AAA            AAA                            213147040      20220810 N B0000    00000000000200            01213147040 2012210000000006431         KN140521000000000000000020000000000000000000000000000000000000000000001000001301875007ELISANDRA KERN                          RUA EMILIO MICHELS, 1668                00000000000 958000000000000000000000000                                         000097
1AAA            AAA                            213149018      20220810 N B0000    00000000000200            01213149018 1008210000000037477         KN170521000000000000000120000000000000000000000000000000000000000000001000089717333068MARIBEL DE FATIMA ANTUNES DA ROSA       RUA CANDIDO DE MOURA, 1391              00000000000 958000000000000000000000000                                         000098
1AAA            AAA                            213149026      20220810 N B0000    00000000000200            01213149026 1009210000000037477         KN170521000000000000000120000000000000000000000000000000000000000000001000089717333068MARIBEL DE FATIMA ANTUNES DA ROSA       RUA CANDIDO DE MOURA, 1391              00000000000 958000000000000000000000000                                         000099
1AAA            AAA                            213149042      20220810 N B0000    00000000000200            01213149042 2106210000000012815         KN170521000000000000000040000000000000000000000000000000000000000000001000002287872035PRISCILA KONEGER                        RUA PRES CAMPOS SALES, 28               00000000000 968102800000000000000000000                                         000100
1AAA            AAA                            213149050      20220810 N B0000    00000000000200            01213149050 2107210000000012815         KN170521000000000000000040000000000000000000000000000000000000000000001000002287872035PRISCILA KONEGER                        RUA PRES CAMPOS SALES, 28               00000000000 968102800000000000000000000                                         000101
1AAA            AAA                            214796050      20220810 N B0000    00000000000200            01214796050 0501220000000005649         KN011121000000000000000020000000000000000000000000000000000000000000001000003301403026TATIANA SOUZA DO AMARAL                 AVENIDA BENJAMIN CONSTANT, 3881         00000000000 959050800000000000000000000                                         000102
1AAA            AAA                            214796068      20220810 N B0000    00000000000200            01214796068 0502220000000005649         KN011121000000000000000020000000000000000000000000000000000000000000001000003301403026TATIANA SOUZA DO AMARAL                 AVENIDA BENJAMIN CONSTANT, 3881         00000000000 959050800000000000000000000                                         000103
1AAA            AAA                            214796076      20220810 N B0000    00000000000200            01214796076 0503220000000005649         KN011121000000000000000020000000000000000000000000000000000000000000001000003301403026TATIANA SOUZA DO AMARAL                 AVENIDA BENJAMIN CONSTANT, 3881         00000000000 959050800000000000000000000                                         000104
1AAA            AAA                            215069755      20220810 N B0000    00000000000200            01215069755 3001220000000006296         KN221121000000000000000020000000000000000000000000000000000000000000001000000922513074TAMIRES MADALENA COUTO                  RUA EVILASIO CARVALHO BASTOS, 75        00000000000 968352350000000000000000000                                         000105
1AAA            AAA                            215069763      20220810 N B0000    00000000000200            01215069763 2802220000000006296         KN221121000000000000000020000000000000000000000000000000000000000000001000000922513074TAMIRES MADALENA COUTO                  RUA EVILASIO CARVALHO BASTOS, 75        00000000000 968352350000000000000000000                                         000106
1AAA            AAA                            215069771      20220810 N B0000    00000000000200            01215069771 3003220000000006296         KN221121000000000000000020000000000000000000000000000000000000000000001000000922513074TAMIRES MADALENA COUTO                  RUA EVILASIO CARVALHO BASTOS, 75        00000000000 968352350000000000000000000                                         000107
1AAA            AAA                            215069780      20220810 N B0000    00000000000200            01215069780 3004220000000006296         KN221121000000000000000020000000000000000000000000000000000000000000001000000922513074TAMIRES MADALENA COUTO                  RUA EVILASIO CARVALHO BASTOS, 75        00000000000 968352350000000000000000000                                         000108
1AAA            AAA                            215076735      20220810 N B0000    00000000000200            01215076735 1012210000000018182         KN301121000000000000000060000000000000000000000000000000000000000000001000001776254066IAGO JARDEL SCHMITZ                     RUA MATIAS HUPPES, 69                   00000000000 959400000000000000000000000                                         000109
1AAA            AAA                            215076743      20220810 N B0000    00000000000200            01215076743 1001220000000018182         KN301121000000000000000060000000000000000000000000000000000000000000001000001776254066IAGO JARDEL SCHMITZ                     RUA MATIAS HUPPES, 69                   00000000000 959400000000000000000000000                                         000110
1AAA            AAA                            214925410      20220810 N B0000    00000000000200            01214925410 1512210000000012000         KN011221000000000000000040000000000000000000000000000000000000000000001000001018053069AMANDA SCHMITZ                          RUA PAULINA SEIBT 90                    00000000000 959101800000000000000000000                                         000111
1AAA            AAA                            214968500      20220810 N B0000    00000000000200            01214968500 2712210000000008000         KN011221000000000000000030000000000000000000000000000000000000000000001000089165608020MICHEL BARBIERI CASTILHOS               RUA PIAUI, 291                          00000000000 959132040000000000000000000                                         000112
1AAA            AAA                            214968969      20220810 N B0000    00000000000200            01214968969 1512210000000007850         KN011221000000000000000030000000000000000000000000000000000000000000001000001527847055SIBELE CARINE WILLIG                    RUA WALTER IMMICH, 551 CASA 02          00000000000 959083920000000000000000000                                         000113
1AAA            AAA                            215097589      20220810 N B0000    00000000000200            01215097589 1012210000000009984         KN031221000000000000000030000000000000000000000000000000000000000000001000005432780003GABRIELI VANESSA FERRAO SILVA           RUA JOAO GOULART, 03                    00000000000 959100140000000000000000000                                         000114
1AAA            AAA                            215097597      20220810 N B0000    00000000000200            01215097597 1001220000000009984         KN031221000000000000000030000000000000000000000000000000000000000000001000005432780003GABRIELI VANESSA FERRAO SILVA           RUA JOAO GOULART, 03                    00000000000 959100140000000000000000000                                         000115
1AAA            AAA                            215097600      20220810 N B0000    00000000000200            01215097600 1002220000000009984         KN031221000000000000000030000000000000000000000000000000000000000000001000005432780003GABRIELI VANESSA FERRAO SILVA           RUA JOAO GOULART, 03                    00000000000 959100140000000000000000000                                         000116
1AAA            AAA                            215097619      20220810 N B0000    00000000000200            01215097619 1003220000000009984         KN031221000000000000000030000000000000000000000000000000000000000000001000005432780003GABRIELI VANESSA FERRAO SILVA           RUA JOAO GOULART, 03                    00000000000 959100140000000000000000000                                         000117
1AAA            AAA                            212607187      20220810 N B0000    00000000000200            01212607187 3003210000000014727         KN160321000000000000000050000000000000000000000000000000000000000000001000001847901077PATRIK PIRES DOS REIS                   JOSE PORFIRIO DA COSTA, 831             00000000000 958600000000000000000000000                                         000118
1AAA            AAA                            212620779      20220810 N B0000    00000000000200            01212620779 1004210000000052700         KN170321000000000000000180000000000000000000000000000000000000000000001000064150852049ROSALIA HIRSCH                          RUA EDWINO JOAO HAESER, 259             00000000000 968407600000000000000000000                                         000119
1AAA            AAA                            212623875      20220810 N B0000    00000000000200            01212623875 2504210000000111038         KN170321000000000000000370000000000000000000000000000000000000000000001000080965423034ROBERTO CARLOS DOS SANTOS MEDEIROS      RUA JOAO BATISTA DA CRUZ JOBIM, 05/103  00000000000 970603300000000000000000000                                         000120
1AAA            AAA                            212623948      20220810 N B0000    00000000000200            01212623948 2504210000000069609         KN170321000000000000000230000000000000000000000000000000000000000000001000036107725814VINICIUS CAMPOS AGUIAR                  AVENIDA HERBERT DE SOUZA,1,AP 13        00000000000 130512050000000000000000000                                         000121
1AAA            AAA                            212737129      20220810 N B0000    00000000000200            01212737129 1704210000000124921         KN170321000000000000000420000000000000000000000000000000000000000000001000044247540068JEANE MARIA LINDEMANN FERLA             AVENIDA SETE DE SETEMBRO, 726/403       00000000000 959006760000000000000000000                                         000122
1AAA            AAA                            212737412      20220810 N B0000    00000000000200            01212737412 2704210000000041705         KN170321000000000000000140000000000000000000000000000000000000000000001000088473503015VANTUIR SPEGIORINI                      RUA BARRA DO GUAPORE, S/N               00000000000 959600000000000000000000000                                         000123
1AAA            AAA                            212737625      20220810 N B0000    00000000000200            01212737625 1704210000000043677         KN170321000000000000000150000000000000000000000000000000000000000000001000097631299072ELISA CRISTINA BACK                     JULIO DE CASTILHOS, 891 SALA 02         00000000000 958000000000000000000000000                                         000124
1AAA            AAA                            212712304      20220810 N B0000    00000000000200            01212712304 1704210000000105788         KN170321000000000000000350000000000000000000000000000000000000000000001000001978172036THIAGO RAFAEL BATISTA                   RUA GENERAL OSORIO, 1660                00000000000 958000000000000000000000000                                         000125
1AAA            AAA                            212742181      20220810 N B0000    00000000000200            01212742181 0705210000000045958         KN170321000000000000000150000000000000000000000000000000000000000000001000097716715020RONI DAL PIZZOL                         RUA CORONEL SOBRAL, 1767/302            00000000000 959600000000000000000000000                                         000126
1AAA            AAA                            212744974      20220810 N B0000    00000000000200            01212744974 1504210000000023703         KN170321000000000000000080000000000000000000000000000000000000000000001000000222757035CARLA REGINA HAAS HAMMES                AVENIDA SANTA CRUZ, SN                  00000000000 968750000000000000000000000                                         000127
1AAA            AAA                            212746110      20220810 N B0000    00000000000200            01212746110 1704210000000084055         KN170321000000000000000280000000000000000000000000000000000000000000001000094131856034MONICA ANDREIA MOCELLIN                 RUA BORGES DE MEDEIROS, 225             00000000000 959001760000000000000000000                                         000128
1AAA            AAA                            212746209      20220810 N B0000    00000000000200            01212746209 1704210000000036871         KN170321000000000000000120000000000000000000000000000000000000000000001000001025273001FABRICIO SILVA ALVES                    RUA JOSE SENA FERREIRA, 72              00000000000 967500000000000000000000000                                         000129
1AAA            AAA                            212747302      20220810 N B0000    00000000000200            01212747302 2704210000000064573         KN170321000000000000000220000000000000000000000000000000000000000000001000003087315060DANIELA FERNANDA RIBEIRO                RUA PASSO FUNDO, 954                    00000000000 959600000000000000000000000                                         000130
1AAA            AAA                            212749054      20220810 N B0000    00000000000200            01212749054 1004210000000049271         KN170321000000000000000160000000000000000000000000000000000000000000001000083817018053DANIEL ANDRE SCHERER                    RUA ZENO SCHMATZ, 836 SOBRADO 2         00000000000 959043240000000000000000000                                         000131
1AAA            AAA                            212753477      20220810 N B0000    00000000000200            01212753477 1504210000000054216         KN170321000000000000000180000000000000000000000000000000000000000000001000001847579086TATIANA BLAU                            RUA BENNO SCHMITT, 177/02               00000000000 959063320000000000000000000                                         000132
1AAA            AAA                            212753779      20220810 N B0000    00000000000200            01212753779 1704210000000048602         KN170321000000000000000160000000000000000000000000000000000000000000001000092909043053EDUARDA HELFER                          RUA PST BECKER, 297                     00000000000 968150800000000000000000000                                         000133
1AAA            AAA                            212320457      20220810 N B0000    00000000000200            01212320457 2604210000000017670         KN080221000000000000000060000000000000000000000000000000000000000000001000099588684072ALEX QUINTANA                           RUA GENERAL OSORIO 169 APTO 102         00000000000 958000000000000000000000000                                         000134
1AAA            AAA                            212320465      20220810 N B0000    00000000000200            01212320465 2605210000000017670         KN080221000000000000000060000000000000000000000000000000000000000000001000099588684072ALEX QUINTANA                           RUA GENERAL OSORIO 169 APTO 102         00000000000 958000000000000000000000000                                         000135
1AAA            AAA                            212338976      20220810 N B0000    00000000000200            01212338976 1502210000000019831         KN080221000000000000000070000000000000000000000000000000000000000000001000001172641056FRANCIANE BERGMANN LIMA                 RUA EDMUNDO NIEDERLE, 95 CASA 01        00000000000 959063200000000000000000000                                         000136
1AAA            AAA                            212335055      20220810 N B0000    00000000000200            01212335055 2302210000000017711         KN090221000000000000000060000000000000000000000000000000000000000000001000046590269068ANA LUCIA PRANKE                        RUA ERNESTO WERMUTH, 142                00000000000 968151600000000000000000000                                         000137
1AAA            AAA                            212335063      20220810 N B0000    00000000000200            01212335063 2303210000000017711         KN090221000000000000000060000000000000000000000000000000000000000000001000046590269068ANA LUCIA PRANKE                        RUA ERNESTO WERMUTH, 142                00000000000 968151600000000000000000000                                         000138
1AAA            AAA                            212335071      20220810 N B0000    00000000000200            01212335071 2304210000000017711         KN090221000000000000000060000000000000000000000000000000000000000000001000046590269068ANA LUCIA PRANKE                        RUA ERNESTO WERMUTH, 142                00000000000 968151600000000000000000000                                         000139
1AAA            AAA                            212335080      20220810 N B0000    00000000000200            01212335080 2305210000000017711         KN090221000000000000000060000000000000000000000000000000000000000000001000046590269068ANA LUCIA PRANKE                        RUA ERNESTO WERMUTH, 142                00000000000 968151600000000000000000000                                         000140
1AAA            AAA                            212340750      20220810 N B0000    00000000000200            01212340750 2202210000000037960         KN170221000000000000000130000000000000000000000000000000000000000000001000057738963034MARA LILIANE TEIXEIRA DA SILVA          RUA CARLOS WERNER, 139/301              00000000000 968800000000000000000000000                                         000141
1AAA            AAA                            212340768      20220810 N B0000    00000000000200            01212340768 2203210000000037960         KN170221000000000000000130000000000000000000000000000000000000000000001000057738963034MARA LILIANE TEIXEIRA DA SILVA          RUA CARLOS WERNER, 139/301              00000000000 968800000000000000000000000                                         000142
1AAA            AAA                            212340776      20220810 N B0000    00000000000200            01212340776 2204210000000037960         KN170221000000000000000130000000000000000000000000000000000000000000001000057738963034MARA LILIANE TEIXEIRA DA SILVA          RUA CARLOS WERNER, 139/301              00000000000 968800000000000000000000000                                         000143
1AAA            AAA                            212341110      20220810 N B0000    00000000000200            01212341110 1004210000000007170         KN180221000000000000000020000000000000000000000000000000000000000000001000086853678087GILBERTO CARVALHO DE SOUZA JUNIOR       RUA AMANDA SCHWAMBACH, 72               00000000000 958900000000000000000000000                                         000144
1AAA            AAA                            212341128      20220810 N B0000    00000000000200            01212341128 1005210000000007170         KN180221000000000000000020000000000000000000000000000000000000000000001000086853678087GILBERTO CARVALHO DE SOUZA JUNIOR       RUA AMANDA SCHWAMBACH, 72               00000000000 958900000000000000000000000                                         000145
1AAA            AAA                            212341136      20220810 N B0000    00000000000200            01212341136 1006210000000007170         KN180221000000000000000020000000000000000000000000000000000000000000001000086853678087GILBERTO CARVALHO DE SOUZA JUNIOR       RUA AMANDA SCHWAMBACH, 72               00000000000 958900000000000000000000000                                         000146
1AAA            AAA                            212341144      20220810 N B0000    00000000000200            01212341144 1007210000000007170         KN180221000000000000000020000000000000000000000000000000000000000000001000086853678087GILBERTO CARVALHO DE SOUZA JUNIOR       RUA AMANDA SCHWAMBACH, 72               00000000000 958900000000000000000000000                                         000147
1AAA            AAA                            212341152      20220810 N B0000    00000000000200            01212341152 1008210000000007170         KN180221000000000000000020000000000000000000000000000000000000000000001000086853678087GILBERTO CARVALHO DE SOUZA JUNIOR       RUA AMANDA SCHWAMBACH, 72               00000000000 958900000000000000000000000                                         000148
1AAA            AAA                            212341276      20220810 N B0000    00000000000200            01212341276 0403210000000008116         KN190221000000000000000030000000000000000000000000000000000000000000001000000057891095FABIA APARECIDA DA SILVA JOCHAN         RUA CARLOS WAGNER, 450                  00000000000 958000000000000000000000000                                         000149
1AAA            AAA                            212975089      20220810 N B0000    00000000000200            01212975089 1505210000000010855         KN160421000000000000000040000000000000000000000000000000000000000000001000001479801003MAIKEL DE VARGAS MAURILA                RUA ARMINDO HAMEYER, 701                00000000000 959400000000000000000000000                                         000150
1AAA            AAA                            212975143      20220810 N B0000    00000000000200            01212975143 1505210000000009627         KN160421000000000000000030000000000000000000000000000000000000000000001000004293969020ADRIA LUIZI DOS SANTOS DE MOURA         AVENIDA JOAO PESSOA, 600                00000000000 968200660000000000000000000                                         000151
1AAA            AAA                            212975437      20220810 N B0000    00000000000200            01212975437 1505210000000011195         KN160421000000000000000040000000000000000000000000000000000000000000001000002099857040LUIZA CHRISTMANN                        RUA ARNALDO MARIANO CAMERA, S/N         00000000000 958000000000000000000000000                                         000152
1AAA            AAA                            212975607      20220810 N B0000    00000000000200            01212975607 1505210000000027975         KN160421000000000000000090000000000000000000000000000000000000000000001000097235431091WALESKA DE LIMA LOPES                   AVENIDA JOAO A SCHMIDT, 862             00000000000 959050360000000000000000000                                         000153
1AAA            AAA                            212975631      20220810 N B0000    00000000000200            01212975631 1005210000000012786         KN160421000000000000000040000000000000000000000000000000000000000000001000000870253026AMILTO NUNES GRANVILE                   LINHA SABADIN, SN                       00000000000 959950000000000000000000000                                         000154
1AAA            AAA                            212975712      20220810 N B0000    00000000000200            01212975712 1505210000000010462         KN160421000000000000000030000000000000000000000000000000000000000000001000003218204011DAVID GILMOUR LEAO DA SILVA             IPIRANGA, 420                           00000000000 966400000000000000000000000                                         000155
1AAA            AAA                            212976727      20220810 N B0000    00000000000200            01212976727 2705210000000012786         KN160421000000000000000040000000000000000000000000000000000000000000001000001124627073ANDERSON JOSE DE JESUS                  RUA OTILDES COSTA DA ROSA,2821          00000000000 958000000000000000000000000                                         000156
1AAA            AAA                            212976808      20220810 N B0000    00000000000200            01212976808 1005210000000019182         KN160421000000000000000060000000000000000000000000000000000000000000001000001557678014LEIDI CHAIANE DOS REIS MOTTA            RUA THEREZA NEITZK CAVALHEIRO, 13       00000000000 958800000000000000000000000                                         000157
1AAA            AAA                            212976891      20220810 N B0000    00000000000200            01212976891 1005210000000010003         KN160421000000000000000030000000000000000000000000000000000000000000001000004657989189OZENIL DA SILVA JUNIOR                  RUA CARLOS WAGNER, 1375, COMP LOJA      00000000000 958000000000000000000000000                                         000158
1AAA            AAA                            212976980      20220810 N B0000    00000000000200            01212976980 1505210000000027723         KN160421000000000000000090000000000000000000000000000000000000000000001000001528231074CATIELE FERNANDA BARKERT                RUA ARNALDO FLUCK, 934/101              00000000000 959230000000000000000000000                                         000159
1AAA            AAA                            212976999      20220810 N B0000    00000000000200            01212976999 1005210000000008540         KN160421000000000000000030000000000000000000000000000000000000000000001000000204344727SILVIO CARLOS GONCALVES DUTRA           SANTA HELENA , 39                       00000000000 967000000000000000000000000                                         000160
1AAA            AAA                            212977634      20220810 N B0000    00000000000200            01212977634 1005210000000008243         KN160421000000000000000030000000000000000000000000000000000000000000001000004219616004BRUNA CAROLINE WESTENHOFEN              RUA DONA RITA, 2637                     00000000000 959400000000000000000000000                                         000161
1AAA            AAA                            212977642      20220810 N B0000    00000000000200            01212977642 2705210000000013340         KN160421000000000000000040000000000000000000000000000000000000000000001000001042124035CHARLENE DE SOUZA                       ARTHUR ZONI CAMARA , 32                 00000000000 967400000000000000000000000                                         000162
1AAA            AAA                            212977898      20220810 N B0000    00000000000200            01212977898 1005210000000012405         KN160421000000000000000040000000000000000000000000000000000000000000001000001247033058JACO GUILHERME SATTLER                  RUA ALBERTO TORRES, 129/305             00000000000 959002020000000000000000000                                         000163
1AAA            AAA                            212978398      20220810 N B0000    00000000000200            01212978398 1005210000000009500         KN160421000000000000000030000000000000000000000000000000000000000000001000090718470044REGINA AULER KRIEGER                    LINHA SAO JOSE, SN                      00000000000 958800000000000000000000000                                         000164
1AAA            AAA                            212978568      20220810 N B0000    00000000000200            01212978568 2705210000000009028         KN160421000000000000000030000000000000000000000000000000000000000000001000004021235060JESSIELEN DA SILVA OLIVEIRA             AVENIDA SEN ALBERTO PASQUALINI, 3028/30100000000000 959145000000000000000000000                                         000165
1AAA            AAA                            212978606      20220810 N B0000    00000000000200            01212978606 1005210000000025964         KN160421000000000000000090000000000000000000000000000000000000000000001000000658649051VANESA RIBEIRO MOREIRA                  RUA JOAO SANTOS, 80                     00000000000 957350000000000000000000000                                         000166
1AAA            AAA                            212979807      20220810 N B0000    00000000000200            01212979807 1505210000000027095         KN160421000000000000000090000000000000000000000000000000000000000000001000053612680030MARILENE DE FATIMA DA SILVA             RUA NATIVO BANDEIRA, 110                00000000000 966400000000000000000000000                                         000167
1AAA            AAA                            213065418      20220810 N B0000    00000000000200            01213065418 0105210000000010437         KN190421000000000000000030000000000000000000000000000000000000000000001000001026456045DAIANE DE SOUZA DRAGHETTI               RUA EDMUNDO MULLER, 215                 00000000000 958800000000000000000000000                                         000168
1AAA            AAA                            213065426      20220810 N B0000    00000000000200            01213065426 0106210000000010437         KN190421000000000000000030000000000000000000000000000000000000000000001000001026456045DAIANE DE SOUZA DRAGHETTI               RUA EDMUNDO MULLER, 215                 00000000000 958800000000000000000000000                                         000169
1AAA            AAA                            213065434      20220810 N B0000    00000000000200            01213065434 0107210000000010437         KN190421000000000000000030000000000000000000000000000000000000000000001000001026456045DAIANE DE SOUZA DRAGHETTI               RUA EDMUNDO MULLER, 215                 00000000000 958800000000000000000000000                                         000170
1AAA            AAA                            213065442      20220810 N B0000    00000000000200            01213065442 0108210000000010437         KN190421000000000000000030000000000000000000000000000000000000000000001000001026456045DAIANE DE SOUZA DRAGHETTI               RUA EDMUNDO MULLER, 215                 00000000000 958800000000000000000000000                                         000171
1AAA            AAA                            213065450      20220810 N B0000    00000000000200            01213065450 0109210000000010437         KN190421000000000000000030000000000000000000000000000000000000000000001000001026456045DAIANE DE SOUZA DRAGHETTI               RUA EDMUNDO MULLER, 215                 00000000000 958800000000000000000000000                                         000172
1AAA            AAA                            213065469      20220810 N B0000    00000000000200            01213065469 0110210000000010437         KN190421000000000000000030000000000000000000000000000000000000000000001000001026456045DAIANE DE SOUZA DRAGHETTI               RUA EDMUNDO MULLER, 215                 00000000000 958800000000000000000000000                                         000173
1AAA            AAA                            212895271      20220810 N B0000    00000000000200            01212895271 0505210000000028889         KN190421000000000000000100000000000000000000000000000000000000000000001000000336593031LIGIA APARECIDA QUEVEDO VIEIRA          HUGO J HENNEMANN, 539 CASA 02           00000000000 959068100000000000000000000                                         000174
1AAA            AAA                            213066546      20220810 N B0000    00000000000200            01213066546 0105210000000010940         KN200421000000000000000040000000000000000000000000000000000000000000001000004641532397KEROLAY SANTOS COSTA                    RUA JOSE BROCK, 1207                    00000000000 957350000000000000000000000                                         000175
1AAA            AAA                            213066554      20220810 N B0000    00000000000200            01213066554 0106210000000010940         KN200421000000000000000040000000000000000000000000000000000000000000001000004641532397KEROLAY SANTOS COSTA                    RUA JOSE BROCK, 1207                    00000000000 957350000000000000000000000                                         000176
1AAA            AAA                            213066562      20220810 N B0000    00000000000200            01213066562 0107210000000010940         KN200421000000000000000040000000000000000000000000000000000000000000001000004641532397KEROLAY SANTOS COSTA                    RUA JOSE BROCK, 1207                    00000000000 957350000000000000000000000                                         000177
1AAA            AAA                            213067062      20220810 N B0000    00000000000200            01213067062 1505210000000012590         KN200421000000000000000040000000000000000000000000000000000000000000001000000929633075ANA PAULA DA CRUZ DAMIAO                RUA TF 115, 1417                        00000000000 958400000000000000000000000                                         000178
1AAA            AAA                            213068450      20220810 N B0000    00000000000200            01213068450 0505210000000005449         KN220421000000000000000020000000000000000000000000000000000000000000001000003599379009VITORIA SCHENA                          LINHA SAO PEDRO, SN                     00000000000 968750000000000000000000000                                         000179
1AAA            AAA                            213068468      20220810 N B0000    00000000000200            01213068468 0506210000000005449         KN220421000000000000000020000000000000000000000000000000000000000000001000003599379009VITORIA SCHENA                          LINHA SAO PEDRO, SN                     00000000000 968750000000000000000000000                                         000180
1AAA            AAA                            213068476      20220810 N B0000    00000000000200            01213068476 0507210000000005449         KN220421000000000000000020000000000000000000000000000000000000000000001000003599379009VITORIA SCHENA                          LINHA SAO PEDRO, SN                     00000000000 968750000000000000000000000                                         000181
1AAA            AAA                            213068484      20220810 N B0000    00000000000200            01213068484 0508210000000005449         KN220421000000000000000020000000000000000000000000000000000000000000001000003599379009VITORIA SCHENA                          LINHA SAO PEDRO, SN                     00000000000 968750000000000000000000000                                         000182
1AAA            AAA                            213068492      20220810 N B0000    00000000000200            01213068492 0509210000000005449         KN220421000000000000000020000000000000000000000000000000000000000000001000003599379009VITORIA SCHENA                          LINHA SAO PEDRO, SN                     00000000000 968750000000000000000000000                                         000183
1AAA            AAA                            213068280      20220810 N B0000    00000000000200            01213068280 0507210000000034147         KN220421000000000000000110000000000000000000000000000000000000000000001000092684734020SABINO PAGLIARINI                       RUA DUQUE DE CAXIAS, 564                00000000000 959600000000000000000000000                                         000184
1AAA            AAA                            213068042      20220810 N B0000    00000000000200            01213068042 0605210000000035380         KN220421000000000000000120000000000000000000000000000000000000000000001000089165608020MICHEL BARBIERI CASTILHOS               RUA PIAUI, 291                          00000000000 959132040000000000000000000                                         000185
1AAA            AAA                            213068050      20220810 N B0000    00000000000200            01213068050 0606210000000035380         KN220421000000000000000120000000000000000000000000000000000000000000001000089165608020MICHEL BARBIERI CASTILHOS               RUA PIAUI, 291                          00000000000 959132040000000000000000000                                         000186
1AAA            AAA                            213068069      20220810 N B0000    00000000000200            01213068069 0607210000000035380         KN220421000000000000000120000000000000000000000000000000000000000000001000089165608020MICHEL BARBIERI CASTILHOS               RUA PIAUI, 291                          00000000000 959132040000000000000000000                                         000187
1AAA            AAA                            213068077      20220810 N B0000    00000000000200            01213068077 0608210000000035380         KN220421000000000000000120000000000000000000000000000000000000000000001000089165608020MICHEL BARBIERI CASTILHOS               RUA PIAUI, 291                          00000000000 959132040000000000000000000                                         000188
1AAA            AAA                            213068085      20220810 N B0000    00000000000200            01213068085 0609210000000035380         KN220421000000000000000120000000000000000000000000000000000000000000001000089165608020MICHEL BARBIERI CASTILHOS               RUA PIAUI, 291                          00000000000 959132040000000000000000000                                         000189
1AAA            AAA                            213068093      20220810 N B0000    00000000000200            01213068093 0610210000000035380         KN220421000000000000000120000000000000000000000000000000000000000000001000089165608020MICHEL BARBIERI CASTILHOS               RUA PIAUI, 291                          00000000000 959132040000000000000000000                                         000190
1AAA            AAA                            213068441      20220810 N B0000    00000000000200            01213068441 1512210000000006183         KN220421000000000000000020000000000000000000000000000000000000000000001000001330908090ISRAEL NHOATO GODOLPHIN                 RUA IGNACIO J JACOBS, 36                00000000000 968306060000000000000000000                                         000191
1AAA            AAA                            213068387      20220810 N B0000    00000000000200            01213068387 1506210000000006183         KN220421000000000000000020000000000000000000000000000000000000000000001000001330908090ISRAEL NHOATO GODOLPHIN                 RUA IGNACIO J JACOBS, 36                00000000000 968306060000000000000000000                                         000192
1AAA            AAA                            213068395      20220810 N B0000    00000000000200            01213068395 1507210000000006183         KN220421000000000000000020000000000000000000000000000000000000000000001000001330908090ISRAEL NHOATO GODOLPHIN                 RUA IGNACIO J JACOBS, 36                00000000000 968306060000000000000000000                                         000193
1AAA            AAA                            213068409      20220810 N B0000    00000000000200            01213068409 1508210000000006183         KN220421000000000000000020000000000000000000000000000000000000000000001000001330908090ISRAEL NHOATO GODOLPHIN                 RUA IGNACIO J JACOBS, 36                00000000000 968306060000000000000000000                                         000194
1AAA            AAA                            213068417      20220810 N B0000    00000000000200            01213068417 1509210000000006183         KN220421000000000000000020000000000000000000000000000000000000000000001000001330908090ISRAEL NHOATO GODOLPHIN                 RUA IGNACIO J JACOBS, 36                00000000000 968306060000000000000000000                                         000195
1AAA            AAA                            213068425      20220810 N B0000    00000000000200            01213068425 1510210000000006183         KN220421000000000000000020000000000000000000000000000000000000000000001000001330908090ISRAEL NHOATO GODOLPHIN                 RUA IGNACIO J JACOBS, 36                00000000000 968306060000000000000000000                                         000196
1AAA            AAA                            213068433      20220810 N B0000    00000000000200            01213068433 1511210000000006183         KN220421000000000000000020000000000000000000000000000000000000000000001000001330908090ISRAEL NHOATO GODOLPHIN                 RUA IGNACIO J JACOBS, 36                00000000000 968306060000000000000000000                                         000197
1AAA            AAA                            215076760      20220810 N B0000    00000000000200            01215076760 1012210000000038594         KN301121000000000000000130000000000000000000000000000000000000000000001000002586535073NICOLE RENNER                           RUA DR ROBERTO FLEISCHHUT, 608          00000000000 959130500000000000000000000                                         000198
1AAA            AAA                            215076778      20220810 N B0000    00000000000200            01215076778 1001220000000038594         KN301121000000000000000130000000000000000000000000000000000000000000001000002586535073NICOLE RENNER                           RUA DR ROBERTO FLEISCHHUT, 608          00000000000 959130500000000000000000000                                         000199
1AAA            AAA                            215076786      20220810 N B0000    00000000000200            01215076786 1002220000000038594         KN301121000000000000000130000000000000000000000000000000000000000000001000002586535073NICOLE RENNER                           RUA DR ROBERTO FLEISCHHUT, 608          00000000000 959130500000000000000000000                                         000200
1AAA            AAA                            215097708      20220810 N B0000    00000000000200            01215097708 1001220000000017287         KN031221000000000000000060000000000000000000000000000000000000000000001000001884222005MICHELE KALKMANN ALTHAUS                RUA TRES DE OUTUBRO, 1258               00000000000 958900000000000000000000000                                         000201
1AAA            AAA                            215097716      20220810 N B0000    00000000000200            01215097716 1002220000000017287         KN031221000000000000000060000000000000000000000000000000000000000000001000001884222005MICHELE KALKMANN ALTHAUS                RUA TRES DE OUTUBRO, 1258               00000000000 958900000000000000000000000                                         000202
1AAA            AAA                            215097724      20220810 N B0000    00000000000200            01215097724 1003220000000017287         KN031221000000000000000060000000000000000000000000000000000000000000001000001884222005MICHELE KALKMANN ALTHAUS                RUA TRES DE OUTUBRO, 1258               00000000000 958900000000000000000000000                                         000203
1AAA            AAA                            215097732      20220810 N B0000    00000000000200            01215097732 1004220000000017287         KN031221000000000000000060000000000000000000000000000000000000000000001000001884222005MICHELE KALKMANN ALTHAUS                RUA TRES DE OUTUBRO, 1258               00000000000 958900000000000000000000000                                         000204
1AAA            AAA                            215097740      20220810 N B0000    00000000000200            01215097740 1005220000000017287         KN031221000000000000000060000000000000000000000000000000000000000000001000001884222005MICHELE KALKMANN ALTHAUS                RUA TRES DE OUTUBRO, 1258               00000000000 958900000000000000000000000                                         000205
1AAA            AAA                            215098780      20220810 N B0000    00000000000200            01215098780 0802220000000025378         KN061221000000000000000080000000000000000000000000000000000000000000001000001575191040FABIANA SCHRODER DE MORAES              RUA PREF ARMANDO WINK, 189              00000000000 968264700000000000000000000                                         000206
1AAA            AAA                            215098798      20220810 N B0000    00000000000200            01215098798 0803220000000025378         KN061221000000000000000080000000000000000000000000000000000000000000001000001575191040FABIANA SCHRODER DE MORAES              RUA PREF ARMANDO WINK, 189              00000000000 968264700000000000000000000                                         000207
1AAA            AAA                            215098801      20220810 N B0000    00000000000200            01215098801 0804220000000025378         KN061221000000000000000080000000000000000000000000000000000000000000001000001575191040FABIANA SCHRODER DE MORAES              RUA PREF ARMANDO WINK, 189              00000000000 968264700000000000000000000                                         000208
1AAA            AAA                            212866336      20220810 N B0000    00000000000200            01212866336 2504210000000024820         KN070421000000000000000080000000000000000000000000000000000000000000001000000144907062ROSIMARA DOS SANTOS                     MARTIN LUTHER,585                       00000000000 968800000000000000000000000                                         000209
1AAA            AAA                            213130287      20220810 N B0000    00000000000200            01213130287 2505210000000028520         KN070521000000000000000100000000000000000000000000000000000000000000001000000144907062ROSIMARA DOS SANTOS                     MARTIN LUTHER,585                       00000000000 968800000000000000000000000                                         000210
1AAA            AAA                            213685750      20220810 N B0000    00000000000200            01213685750 2507210000000003700         KN060721000000000000000010000000000000000000000000000000000000000000001000000144907062ROSIMARA DOS SANTOS                     MARTIN LUTHER,585                       00000000000 968800000000000000000000000                                         000211
1AAA            AAA                            212000959      20220810 N B0000    00000000000200            01212000959 1002210000000010097         KN050121000000000000000030000000000000000000000000000000000000000000001000003910804071LEANDRO HENRIQUE SCHEFER                RUA OTELO ROSA, 121                     00000000000 959131840000000000000000000                                         000212
1AAA            AAA                            212000967      20220810 N B0000    00000000000200            01212000967 1003210000000010097         KN050121000000000000000030000000000000000000000000000000000000000000001000003910804071LEANDRO HENRIQUE SCHEFER                RUA OTELO ROSA, 121                     00000000000 959131840000000000000000000                                         000213
1AAA            AAA                            212056474      20220810 N B0000    00000000000200            01212056474 2501210000000031592         KN090121000000000000000110000000000000000000000000000000000000000000001000000333767004INACIA ALEXANDRA DA SILVA ILHA          RUA FELIX DA CUNHA, 1740 APTO 104       00000000000 958000000000000000000000000                                         000214
1AAA            AAA                            212057306      20220810 N B0000    00000000000200            01212057306 2501210000000047086         KN090121000000000000000160000000000000000000000000000000000000000000001000045403252053JORGE ROBERTO REZENDE PINHEIRO          RUA ERNANDE DE OLIVEIRA, 174            00000000000 974000000000000000000000000                                         000215
1AAA            AAA                            212057365      20220810 N B0000    00000000000200            01212057365 2501210000000014117         KN090121000000000000000050000000000000000000000000000000000000000000001000000802830048VINICIUS DE VARGAS LANGE                RUA GUIDO INACIO WHATIER, 246           00000000000 958800000000000000000000000                                         000216
1AAA            AAA                            212057462      20220810 N B0000    00000000000200            01212057462 2501210000000009883         KN090121000000000000000030000000000000000000000000000000000000000000001000000846352079MARCOS HAMMERSCHMIDT DA SILVA           ESTRADA CITOY ROSA ,275                 00000000000 957800000000000000000000000                                         000217
1AAA            AAA                            212057470      20220810 N B0000    00000000000200            01212057470 2501210000000017834         KN090121000000000000000060000000000000000000000000000000000000000000001000003842759070JEFERSON TAVARES                        RUA FELIPE HEUSER, 67                   00000000000 968156100000000000000000000                                         000218
1AAA            AAA                            212057683      20220810 N B0000    00000000000200            01212057683 2501210000000013331         KN090121000000000000000040000000000000000000000000000000000000000000001000001695219074HENRIQUE GUSTAVO FLECK                  ROGERIO HENZ, 141                       00000000000 958900000000000000000000000                                         000219
1AAA            AAA                            212057861      20220810 N B0000    00000000000200            01212057861 2501210000000016861         KN090121000000000000000060000000000000000000000000000000000000000000001000002491948052SERGIO LEANDRO BORCHARDT                RUA SANTOS DUMONT, 659                  00000000000 995000000000000000000000000                                         000220
1AAA            AAA                            212063020      20220810 N B0000    00000000000200            01212063020 2501210000000021672         KN090121000000000000000070000000000000000000000000000000000000000000001000000249403056FABIELI PRETTO                          RUA RIO G DO NORTE, S/N                 00000000000 959142700000000000000000000                                         000221
1AAA            AAA                            212064302      20220810 N B0000    00000000000200            01212064302 2501210000000014029         KN090121000000000000000050000000000000000000000000000000000000000000001000006186981916MIRELA DA SILVA                         RUA ARGEMIRO ALEGRE, S/N                00000000000 887062450000000000000000000                                         000222
1AAA            AAA                            212064418      20220810 N B0000    00000000000200            01212064418 2501210000000046472         KN090121000000000000000150000000000000000000000000000000000000000000001000096436905049ADRIANO MACHADO VARGAS                  RUA , 315                               00000000000 958600000000000000000000000                                         000223
1AAA            AAA                            212067530      20220810 N B0000    00000000000200            01212067530 3001210000000006644         KN110121000000000000000020000000000000000000000000000000000000000000001000040423760025ELISEU CALDEIRA RODRIGUES               OSVALDO HAAS, 551/CASA                  00000000000 959142280000000000000000000                                         000224
1AAA            AAA                            212090397      20220810 N B0000    00000000000200            01212090397 0702210000000010054         KN190121000000000000000030000000000000000000000000000000000000000000001000002107291047JONAS ENEIAS ROMERO MACHADO             SETE DE SETEMBRO, 1289                  00000000000 959008320000000000000000000                                         000225
1AAA            AAA                            212321038      20220810 N B0000    00000000000200            01212321038 2502210000000013000         KN050221000000000000000040000000000000000000000000000000000000000000001000097049948004MOIRA ERICA MARQUES DA SILVA            R. MINISTRO ADAUTO LUCIO CARDO, 218     00000000000 958800000000000000000000000                                         000226
1AAA            AAA                            212321143      20220810 N B0000    00000000000200            01212321143 2502210000000031592         KN050221000000000000000110000000000000000000000000000000000000000000001000000333767004INACIA ALEXANDRA DA SILVA ILHA          RUA FELIX DA CUNHA, 1740 APTO 104       00000000000 958000000000000000000000000                                         000227
1AAA            AAA                            212321828      20220810 N B0000    00000000000200            01212321828 2502210000000016000         KN050221000000000000000050000000000000000000000000000000000000000000001000000215888057CLAUDIANE BERTOZZI                      RUA FLORES DA CUNHA, 380                00000000000 959600000000000000000000000                                         000228
1AAA            AAA                            212327869      20220810 N B0000    00000000000200            01212327869 2502210000000021672         KN050221000000000000000070000000000000000000000000000000000000000000001000000249403056FABIELI PRETTO                          RUA RIO G DO NORTE, S/N                 00000000000 959142700000000000000000000                                         000229
1AAA            AAA                            212329020      20220810 N B0000    00000000000200            01212329020 2502210000000001400         KN050221000000000000000000000000000000000000000000000000000000000000001000040423760025ELISEU CALDEIRA RODRIGUES               OSVALDO HAAS, 551/CASA                  00000000000 959142280000000000000000000                                         000230
1AAA            AAA                            212341284      20220810 N B0000    00000000000200            01212341284 0404210000000008116         KN190221000000000000000030000000000000000000000000000000000000000000001000000057891095FABIA APARECIDA DA SILVA JOCHAN         RUA CARLOS WAGNER, 450                  00000000000 958000000000000000000000000                                         000231
1AAA            AAA                            212341292      20220810 N B0000    00000000000200            01212341292 0405210000000008116         KN190221000000000000000030000000000000000000000000000000000000000000001000000057891095FABIA APARECIDA DA SILVA JOCHAN         RUA CARLOS WAGNER, 450                  00000000000 958000000000000000000000000                                         000232
1AAA            AAA                            212341306      20220810 N B0000    00000000000200            01212341306 0406210000000008116         KN190221000000000000000030000000000000000000000000000000000000000000001000000057891095FABIA APARECIDA DA SILVA JOCHAN         RUA CARLOS WAGNER, 450                  00000000000 958000000000000000000000000                                         000233
1AAA            AAA                            212341314      20220810 N B0000    00000000000200            01212341314 0407210000000008116         KN190221000000000000000030000000000000000000000000000000000000000000001000000057891095FABIA APARECIDA DA SILVA JOCHAN         RUA CARLOS WAGNER, 450                  00000000000 958000000000000000000000000                                         000234
1AAA            AAA                            212341322      20220810 N B0000    00000000000200            01212341322 0408210000000008116         KN190221000000000000000030000000000000000000000000000000000000000000001000000057891095FABIA APARECIDA DA SILVA JOCHAN         RUA CARLOS WAGNER, 450                  00000000000 958000000000000000000000000                                         000235
1AAA            AAA                            212347240      20220810 N B0000    00000000000200            01212347240 1703210000000049112         KN190221000000000000000160000000000000000000000000000000000000000000001000064718131049MARIA LUCIA STEFFENS                    RUA FLORIDA, 164                        00000000000 958700000000000000000000000                                         000236
1AAA            AAA                            212369391      20220810 N B0000    00000000000200            01212369391 2703210000000032830         KN190221000000000000000110000000000000000000000000000000000000000000001000072075570000CLAIR VITTORAZZI STEFFENS               RUA ERWINO HEEMANN, 113/207             00000000000 959002160000000000000000000                                         000237
1AAA            AAA                            212372350      20220810 N B0000    00000000000200            01212372350 2703210000000042466         KN190221000000000000000140000000000000000000000000000000000000000000001000026673800020JOSE CARLOS BERWANGER                   RUA  DAS AZALEIAS, 867                  00000000000 959134320000000000000000000                                         000238
1AAA            AAA                            212372902      20220810 N B0000    00000000000200            01212372902 1503210000000008350         KN190221000000000000000030000000000000000000000000000000000000000000001000000951977024CARLA CRISTINA BAUMGARTEN               RUA MARIA L FELDENS, 208/03             00000000000 959014260000000000000000000                                         000239
1AAA            AAA                            212373305      20220810 N B0000    00000000000200            01212373305 1003210000000013354         KN190221000000000000000040000000000000000000000000000000000000000000001000000291334083JEANE SABRINA MEINHARDT                 RUA ALBERTO OTT, 160                    00000000000 968352860000000000000000000                                         000240
1AAA            AAA                            212374840      20220810 N B0000    00000000000200            01212374840 1703210000000029829         KN190221000000000000000100000000000000000000000000000000000000000000001000065401751087DANIELLE DAMBROSI                       RUA DR CAMPOS, 363/203                  00000000000 959800000000000000000000000                                         000241
1AAA            AAA                            212376436      20220810 N B0000    00000000000200            01212376436 1703210000000024775         KN190221000000000000000080000000000000000000000000000000000000000000001000000292835078PAULO ROBERTO TEIXEIRA DA SILVA         RUA OTELO ROSA, 203                     00000000000 958600000000000000000000000                                         000242
1AAA            AAA                            212376797      20220810 N B0000    00000000000200            01212376797 2703210000000034203         KN190221000000000000000110000000000000000000000000000000000000000000001000073295051020TATIANA PRADELLA                        RUA BERLIN DA CRUZ, 601                 00000000000 958000000000000000000000000                                         000243
1AAA            AAA                            212378897      20220810 N B0000    00000000000200            01212378897 1703210000000031866         KN190221000000000000000110000000000000000000000000000000000000000000001000046588574053MARISA MONICA KNOD                      RUA PEREIRA CUNHA, 541                  00000000000 968350900000000000000000000                                         000244
1AAA            AAA                            212380794      20220810 N B0000    00000000000200            01212380794 1003210000000078188         KN190221000000000000000260000000000000000000000000000000000000000000001000054178118072JOSE FERNANDO DA SILVA SOUZA            RUA JERONIMO RAMOS DA FONSECA GONCALVES,00000000000 967000000000000000000000000                                         000245
1AAA            AAA                            212386750      20220810 N B0000    00000000000200            01212386750 1003210000000011140         KN190221000000000000000040000000000000000000000000000000000000000000001000004753105946FERNANDA NAYARA GRACIOLI                RUA CARLOS F FILHO, 174/407             00000000000 959005180000000000000000000                                         000246
1AAA            AAA                            212386857      20220810 N B0000    00000000000200            01212386857 1503210000000012526         KN190221000000000000000040000000000000000000000000000000000000000000001000000351027050CATIA ANDRISA DA ROSA                   RUA JORGE H SULZBACH, 170               00000000000 959130380000000000000000000                                         000247
1AAA            AAA                            212389279      20220810 N B0000    00000000000200            01212389279 1503210000000016719         KN190221000000000000000060000000000000000000000000000000000000000000001000001474555020FABIANI SILVESTRINI                     RAMIRO BARCELOS , 72                    00000000000 967450000000000000000000000                                         000248
1AAA            AAA                            212389937      20220810 N B0000    00000000000200            01212389937 1503210000000012180         KN190221000000000000000040000000000000000000000000000000000000000000001000001018053069AMANDA SCHMITZ                          RUA PAULINA SEIBT 90                    00000000000 959101800000000000000000000                                         000249
